:020000040000FA
:08000000803102288731FA2F3C
:100020001630210097000800783021009900220046
:1000300096010800013021009D0080309E009B0148
:100040009C01080080312F208031803114208031C4
:1000500080311020803180311A2080310800220048
:100060008C018D018E010F3021008C00FF308D003E
:100070008E0123008E013F308D000F308C00240054
:1000800090018D012100951722009D010800F300C9
:100090007308F200F20DF20D21001D08720683397B
:1000A00072069D001D140630890B54280032210071
:1000B0009D149D185C285D2859281C08F1001B0818
:1000C000F0000800F800F401F5017008F200F301F7
:1000D0007208F6007308F700781C6F2870287428DF
:1000E0007608F4077708F53D0130F635F70D890BF2
:1000F00075280310F80C7808031D7F2880286C28C9
:100100007508F1007408F0000800F601F31F892853
:100110008A289128F209F309F20A0319F30AF60171
:10012000F60AF11F942895289A28F009F109F00A97
:100130000319F10A7008710403199F28A028C9281F
:10014000F501F50AAC280130F035F10D890BA42832
:100150000130F4007408F507F11FAF28B028A32878
:1001600071087302031DB62870087202031CB928B7
:10017000BA28BE287008F2027108F33B0130F1364C
:10018000F00C890BBF280130F502031DC828C928CF
:10019000B02876080319CD28CE28D328F209F30910
:1001A000F20A0319F30A7308F1007208F00008005C
:1001B0002000A101F81FDD28DE28E528F709F8094D
:1001C000F70A0319F80AA101A10AFA1FE828E92889
:1001D000F228F909FA09F90A0319FA0A0130FB00B1
:1001E0007B08A106A201A301770878040319F92866
:1001F000FA282929A001A00A06290130F735F80DAF
:10020000890BFE280130FB007B08A007F81F092995
:100210000A29FD280130A235A30D890B0B29780886
:100220007A02031D152977087902031C1829192958
:100230001E297708F9027808FA3B22140130F836B3
:10024000F70C890B1F290130A002031D2829292939
:100250000A29210803192D292E293329A209A309C6
:10026000A20A0319A30A2308F8002208F7000800CD
:100270008031222081312000E301E401E101E2012B
:10028000E73020006306033003196406031D492983
:100290004A299C29E301E401003080314720813163
:1002A00071082000E0007008DF005F08F0006008BF
:1002B000F100890D893B8909F200F3000130833197
:1002C0004323813173082000A7007208A60071083B
:1002D000A5007008A4004030A3000330A200123033
:1002E000A1006F30A0008331EF238131200023086B
:1002F000C1002208C0002108BF002008BE00413014
:10030000BD002030BC000030BB000030BA00853199
:10031000A325813120003D08D7003C08D6003B08CA
:10032000D5003A08D4008131AA2181312000550836
:10033000E2005408E100A0290130E3070030E43D69
:100340006208A5006108A40082311F228131402982
:100350008031022803102000560D570DD800580890
:10036000DE005E08031DB529B629BF290030D7007D
:100370000030D6000030D5000030D4001E2A5408CA
:10038000D8005508D9005608DA005708DB001F309E
:10039000DB36DA0CD90CD80C890BC8295808DC00DC
:1003A0005C08DD00D617FF30D405FF30D505FF30DF
:1003B000D6050030D7059630DE02DE1FE029E129A0
:1003C000F9295E08803A973E0318E729E829E929C8
:1003D000B6290130D736D60CD50CD40C890BEA29B6
:1003E0000130D8005808DE07031DF729F829E9294C
:1003F0000E2A20305E02031CFE29FF29092AB62995
:100400000130D435D50DD60DD70D890B012A013019
:10041000DE025E08031D0D2A0E2A002A5D0803195C
:10042000122A132A1E2AD409D509D609D709D40AB3
:100430000319D50A0319D60A0319D70A08000A3086
:10044000F0000030F10020002508F3002408F2003D
:1004500080318520823171082000A7007008A60035
:100460000A30F7000030F8002508F3002408F200F5
:100470006430F0000030F100803185208231710855
:10048000FA007008F9008031D82082317808200005
:10049000A9007708A8006430F7000030F8002508AC
:1004A000F3002408F200E830F0000330F10080315E
:1004B000852082317108FA007008F9008031D82057
:1004C000823178082000AB007708AA0022000C12C5
:1004D00020002B08F1002A08F0008231A522823189
:1004E00022008E160630FC003030890B752AFC0B7A
:1004F000752A003222008E1220002908F1002808F7
:10050000F0008231A522823122000E178C130630B2
:10051000FC003030890B8A2AFC0B8A2A0032220028
:100520008C170E1320002708F1002608F0008231F6
:10053000A522823122000C160630FC003030890BD7
:100540009F2AFC0B9F2A0032080070087104031DCB
:10055000AA2AAB2AB42A22008E118E130C130E1075
:100560008E100E128C16422B70037104031DB92AD3
:10057000BA2AC32A22008E158E130C130E148E1461
:100580000E168C16422B023070067104031DC92A08
:10059000CA2AD32A22008E118E130C170E108E1029
:1005A0000E168C12422B033070067104031DD92ADB
:1005B000DA2AE32A22008E118E130C130E108E14E9
:1005C0000E168C12422B043070067104031DE92AAA
:1005D000EA2AF32A22008E158E130C130E148E14A1
:1005E0000E128C12422B053070067104031DF92A7D
:1005F000FA2A032B22008E118E170C130E108E1464
:100600000E128C12422B063070067104031D092B4A
:100610000A2B132B22008E118E170C130E108E1026
:100620000E128C12422B073070067104031D192B19
:100630001A2B232B22008E118E130C130E148E14E2
:100640000E168C16422B083070067104031D292BE0
:100650002A2B332B22008E118E130C130E108E10AA
:100660000E128C12422B093070067104031D392BB7
:100670003A2B422B22008E118E130C130E108E1467
:100680000E128C120800F80078080319482B492B29
:100690005D2BF31F4C2B4D2B5D2B7009FA0071095C
:1006A000FB007209FC007309FD00FA0A0319FB0A3A
:1006B0000319FC0A0319FD0A652B7308FD00720873
:1006C000FC007108FB007008FA00730872047104E2
:1006D0007004031D6C2B6D2B762B0030F300003063
:1006E000F2000030F1000030F000EE2B9630F40004
:1006F0007408F900862B0130F4007408F907013002
:10070000FD36FC0CFB0CFA0C890B802BFE307D05B2
:10071000031D8B2B8C2B7B2BA02B0130F40074083A
:10072000F9070130FA070030FB3D0030FC3D003096
:10073000FD3D0130FD36FC0CFB0CFA0C890B9A2BAD
:10074000FF307D05031DA52BA62B8D2BB02B013073
:10075000F9020130FA35FB0DFC0DFD0D890BAA2BBA
:10076000FC1BB32BB42BBA2B023079020318B92B24
:10077000BA2BA72B7918BD2BBE2BC62BFF30FA0541
:10078000FF30FB057F30FC05FF30FD050310F90C41
:100790007908F400F501F601F7011830F435F50D8C
:1007A000F60DF70D890BCE2B7408FA047508FB04BF
:1007B0007608FC047708FD0478080319E02BE12B88
:1007C000E62BF31FE42BE52BE62BFD177D08F3004A
:1007D0007C08F2007B08F1007A08F0000800200095
:1007E00027088039A8002808B1002735A800280864
:1007F000B800A61FFC2BFD2BFE2B3814380803195C
:10080000022C032C132C380A031D072C082C102C47
:100810000030A7000030A6000030A5000030A40082
:10082000A617A7011B2C0030A7000030A60000303F
:10083000A5000030A40023088039A8002808B106CC
:100840002335A8002808B900A21F272C282C292C02
:100850003914390803192D2C2E2C3E2C390A031D6E
:10086000322C332C3B2C0030A3000030A20000308F
:10087000A1000030A000A217A301462C0030A30065
:100880000030A2000030A1000030A00023082204A4
:1008900021042004031D4D2C4E2C672C0030A70092
:1008A0000030A6000030A5000030A4008030A6046F
:1008B0007F30A7043108A8002808A7042708A30050
:1008C0002608A2002508A1002408A000A22D3808AF
:1008D000031D6B2C6C2C752C0030A3000030A20083
:1008E0000030A1000030A000A22D3808A800A90106
:1008F0002908AB0039082802AA00031CAB032A0808
:100900007F3EB20000302B3DB3002708B000260820
:10091000AF002508AE002408AD000030A70000306D
:10092000A6000030A5000030A4000030B700003061
:10093000B6000030B5000030B400B901DD2C390834
:100940000319A32CA42CBE2C0130AD35AE0DAF0D78
:10095000B00D890BA52C0130A435A50DA60DA70D52
:10096000890BAC2CB71FB52CB62CB72C2414013036
:10097000B435B50DB60DB70D890BB82C2308300270
:10098000031DCC2C22082F02031DCC2C21082E0283
:10099000031DCC2C20082D02031CCF2CD02CD92CCD
:1009A00037172008AD022108AE3B2208AF3B2308D1
:1009B000B03B0130A8002808B9071A303902031CDF
:1009C000E22CE32C9F2C30082F042E042D04031955
:1009D000EA2CEB2C042D3414042D0130A435A50D84
:1009E000A60DA70D890BEE2CB71FF72CF82CF92CB0
:1009F00024140130B435B50DB60DB70D890BFA2CA2
:100A0000FF30B207FF30B33DA61F072D082DED2C98
:100A1000B901B71F0C2D0D2D292DFF303405A8006D
:100A2000FF303505A900FF303605AA007F303705B5
:100A3000AB002B082A04290428040319202D212D9A
:100A4000242DB901B90A292D241C272D282D292D43
:100A5000212D390803192D2D2E2D562D0130A407D7
:100A60000030A53D0030A63D0030A73D271C392DA4
:100A70003A2D562D2408A8002508A9002608AA000A
:100A80002708AB000130AC00AB37AA0CA90CA80CAE
:100A9000AC0B442D2B08A7002A08A6002908A500A6
:100AA0002808A4000130B2070030B33D3308803A73
:100AB000A80080302802031D5F2DFF303202031C86
:100AC000622D632D702DFF302000B2000030B30086
:100AD0000030A7000030A6000030A5000030A400C0
:100AE00020003308803AA80080302802031D7A2DA8
:100AF0000130320203187D2D7E2D8A2D2000B20197
:100B0000B3010030A7000030A6000030A50000307F
:100B1000A400B10120003208A8002808B800381C41
:100B2000922D932D952DA617992D7F30A80028087A
:100B3000A6053836A8002808A7003108A80028080C
:100B4000A7045E2C080020003D088039C20042083E
:100B5000C7003D35C2004208CD00BC1FB02DB12DED
:100B6000B22D4D144D080319B62DB72DC62D4D0AC3
:100B7000031DBB2DBC2DC42D0030BD000030BC00BA
:100B80000030BB000030BA00BC17CE2D0030BD00D5
:100B90000030BC000030BB000030BA004108803992
:100BA000C2004208C7064135C2004208CC00C01F3F
:100BB000DA2DDB2DDC2D4C144C080319E02DE12D32
:100BC000F02D4C0A031DE52DE62DEE2D0030C10061
:100BD0000030C0000030BF000030BE00C017F82D4C
:100BE0000030C1000030C0000030BF000030BE0047
:100BF0004C080319FC2DFD2D022E4D08031D012E5E
:100C0000022E0B2E0030BD000030BC000030BB00B7
:100C10000030BA00F92F3A08C2004208F00040083C
:100C200080316220853171082000D3007008D20025
:100C30005208C200C301C401C5014508CB004408E5
:100C4000CA004308C9004208C8005308C200C301D3
:100C5000C401C5014508D1004408D0004308CF00B5
:100C60004208CE003B08C2004208F0003F08803135
:100C70006220853171082000D3007008D20052082C
:100C8000C200C301C401C5014208C8074308C93DE9
:100C90004408CA3D4508CB3D5308C200C301C40106
:100CA000C5014208CE074308CF3D4408D03D450862
:100CB000D13D3C08C2004208F0003E08803162206D
:100CC000853171082000D3007008D2005208C2009C
:100CD000C301C401C5014208C8074308C93D44080F
:100CE000CA3D4508CB3D5308C200C301C401C5013C
:100CF0004208CE074308CF3D4408D03D4508D13DCA
:100D00000830C835C90DCA0DCB0D890B812E3B08A3
:100D1000C2004208F0003E0880316220853171082F
:100D20002000D3007008D2005208C8075308C93DFC
:100D30000030CA3DCB3D3A08C2004208F0003F08EF
:100D400080316220853171082000D3007008D20004
:100D50005208C8075308C93D0030CA3DCB3D083092
:100D6000C835C90DCA0DCB0D890BB02E3A08C2008B
:100D70004208F0003E088031622085317108200071
:100D8000D3007008D2005208C8075308C93D00308C
:100D9000CA3DCB3D3B08C2004208F000400880310C
:100DA0006220853171082000D3007008D2005208FB
:100DB000CE075308CF3D0030D03DD13D3C08C200A6
:100DC0004208F0003F088031622085317108200020
:100DD000D3007008D2005208CE075308CF3D003030
:100DE000D03DD13D3C08C2004208F00040088031AF
:100DF0006220853171082000D3007008D2005208AB
:100E0000C2005308C300C401C5010830C235C30D78
:100E1000C40DC50D890B062F4208CE074308CF3DF0
:100E20004408D03D4508D13D4808C2004908C300E8
:100E30004A08C4004B08C5001830C536C40CC30CA2
:100E4000C20C890B1D2F4208CE074308CF3D440832
:100E5000D03D4508D13D0830C835C90DCA0DCB0D70
:100E6000890B2C2F4D084C07C200C301C30D42084B
:100E7000823ED200FF30433DD300552F0130CE35A6
:100E8000CF0DD00DD10D890B3F2FCB1F482F492FF0
:100E90004A2F4E140130C835C90DCA0DCB0D890B30
:100EA0004B2FFF30D207FF30D33DD01F582F592F83
:100EB0003E2FCC01CB1F5D2F5E2F7A2FFF304805D0
:100EC000C200FF304905C300FF304A05C4007F302F
:100ED0004B05C50045084404430442040319712F1F
:100EE000722F752FCC01CC0A7A2F4E1C782F792FB8
:100EF0007A2F722F4C0803197E2F7F2FA72F0130D6
:100F0000CE070030CF3D0030D03D0030D13D511CE8
:100F10008A2F8B2FA72F4E08C2004F08C3005008FE
:100F2000C4005108C5000130C600C537C40CC30C4D
:100F3000C20CC60B952F4508D1004408D0004308C9
:100F4000CF004208CE000130D2070030D33D530815
:100F5000803AC20080304202031DB02FFF3052029F
:100F6000031CB32FB42FBE2F7F302000D100803060
:100F7000D0000030CF000030CE00ED2F200053080D
:100F8000803AC20080304202031DC82F0130520255
:100F90000318CB2FCC2FD72F00302000D1000030EA
:100FA000D0000030CF000030CE00C701ED2F200070
:100FB0005208C2004208CD00FF30CE05FF30CF05F9
:100FC0007F30D0050030D1054D1CE72FE82FE92FE9
:100FD000D0174D36C2004208D1004708C20042086F
:100FE000D1045108BD005008BC004F08BB004E089A
:100FF000BA0008002000E501E6012000813138290F
:020000040001F9
:04000E00E4FFFFFF0D
:00000001FF
